:100000000C9434000C943E000C943E000C943E0082
:100010000C943E000C943E000C943E000C946C003A
:100020000C9462000C943E000C9458000C943E001A
:100030000C943E000C943E000C943E000C943E0048
:100040000C943E000C943E000C943E000C943E0038
:100050000C943E000C943E000C943E000C943E0028
:100060000C943E000C943E0011241FBECFEFD8E04C
:10007000DEBFCDBF0E9440000C9476000C940000BF
:100080008091B00082608093B0008091B100876061
:100090008093B1008BE98093B30084E68093B40031
:1000A000809170008260809370007894539AFFCFA3
:1000B0001F920F920FB60F9211240F900FBE0F9048
:1000C0001F9018951F920F920FB60F9211240F9048
:1000D0000FBE0F901F9018951F920F920FB60F92A0
:1000E00011240F900FBE0F901F901895F894FFCF1A
:00000001FF
